S01400004C6F636B657253797374656D2E737265632B
S11300000C942A000C9447000C9447000C9447006D
S11300100C9447000C9447000C9447000C94470040
S11300200C9447000C9447000C9447000C94470030
S11300300C9447000C9447000C9447000C94470020
S11300400C9447000C9447000C9447000C94470010
S11300500C94470011241FBECFE5D8E0DEBFCDBF0E
S113006010E0A0E6B0E0ECE9F8E002C005900D92E3
S1130070A63BB107D9F720E0A6EBB0E001C01D9282
S1130080A93BB207E1F70E948F030C944C040C9433
S113009000007FBB6EBB8DBB8CB384608CBB8CB308
S11300A082608CBBE199FECF08959FBB8EBB8CB35D
S11300B081608CBB8DB3089580EF84BB8FE085BBDA
S11300C0089585B38F7E85BB85B3806285BB85B378
S11300D0806485BB85B3806885BB989903C0809193
S11300E060000895999903C08091610008959A99D8
S11300F003C08091620008959B9903C080916300BE
S113010008958FEC97E00197F1F700C0000085B3E4
S1130110806185BB85B38F7D85BB85B3806485BBDA
S113012085B3806885BB989903C080916400089565
S1130130999903C08091650008959A9903C08091AC
S1130140660008959B9903C08091670008958FEC21
S113015097E00197F1F700C0000085B3806185BB8B
S113016085B3806285BB85B38F7B85BB85B380688F
S113017085BB989903C0809168000895999903C03C
S11301808091690008959A9903C080916A00089546
S11301909B9903C080916B0008958FEC97E00197C1
S11301A0F1F700C0000085B3806185BB85B3806230
S11301B085BB85B3806485BB85B38F7785BB9899F0
S11301C003C080916C000895999903C080916D00DB
S11301D008959A9903C080916E0008959B9903C075
S11301E080916F0008958FEC97E00197F1F700C0BC
S11301F000008FEF08959BB3977F9BBB84FD04C0E1
S11302009BB39F7E9BBB03C09BB390619BBB85FD4F
S113021004C09BB39F7D9BBB03C09BB390629BBBFD
S113022086FD04C09BB39F7B9BBB03C09BB39064C0
S11302309BBB882324F09BB39F779BBB03C09BB3DA
S113024090689BBB9BB394609BBBEFECF7E031974A
S1130250F1F700C000009BB39B7F9BBBEFECF7E082
S11302603197F1F700C0000080FD04C09BB39F7E6E
S11302709BBB03C09BB390619BBB81FD04C09BB33C
S11302809F7D9BBB03C09BB390629BBB82FD04C05C
S11302909BB39F7B9BBB03C09BB390649BBB83FDC1
S11302A004C08BB38F778BBB03C08BB380688BBBCD
S11302B08BB384608BBB8FEC97E00197F1F700C0A0
S11302C000008BB38B7F8BBBEFECF7E03197F1F73A
S11302D000C0000008958AB38C6F8ABB83E00E943B
S11302E0FB008FE39FE10197F1F700C0000083E07A
S11302F00E94FB008FE39FE10197F1F700C000002B
S113030083E00E94FB008FE39FE10197F1F700C0B7
S1130310000082E00E94FB0088E20E94FB0088E06B
S11303200E94FB0081E00E94FB0086E00E94FB002B
S11303308CE00E94FB008FE39CE90197F1F700C079
S1130340000008959BB398609BBB84FD04C09BB3DD
S11303509F7E9BBB03C09BB390619BBB85FD04C088
S11303609BB39F7D9BBB03C09BB390629BBB86FDED
S113037004C09BB39F7B9BBB03C09BB390649BBB9C
S1130380882324F09BB39F779BBB03C09BB39068E7
S11303909BBB9BB394609BBBEFECF7E03197F1F709
S11303A000C000009BB39B7F9BBBEFECF7E0319751
S11303B0F1F700C0000080FD04C09BB39F7E9BBB8F
S11303C003C09BB390619BBB81FD04C09BB39F7D25
S11303D09BBB03C09BB390629BBB82FD04C09BB3D9
S11303E09F7B9BBB03C09BB390649BBB83FD04C0FA
S11303F08BB38F778BBB03C08BB380688BBB8BB302
S113040084608BBB8FEC97E00197F1F700C000008C
S11304108BB38B7F8BBBEFECF7E03197F1F700C028
S113042000000895813031F070F0823031F0833073
S113043039F00AC090E4960F07C090E1960F04C00B
S113044090E5960F01C0962F892F80680E94FB00CB
S113045008950F931F93CF93DF938C01C0E0D0E0F6
S113046009C00E94A20121968FE99FE00197F1F74C
S113047000C00000F801EC0FFD1F80818111F1CF55
S1130480DF91CF911F910F9108958F929F92AF9218
S1130490BF92CF92DF92EF92FF921F93CF93DF939D
S11304A0CDB7DEB764970FB6F894DEBF0FBECDBFED
S11304B0182FFE01319684E1DF011D928A95E9F738
S11304C0212F30E040E050E0C12CD12C76010DC04A
S11304D0BFEFCB1ADB0AEB0AFB0ACA01B9012AE017
S11304E030E040E050E00E942A0421153105410526
S11304F0510571F7812C912C54012AC09DEC199F50
S1130500912D1124892F869586958695880F282FFD
S1130510220F220F820F181B812F192F1695169563
S11305201695B701A601481959096A097B09415072
S1130530510961097109E1E0F0E0EC0FFD1FE40FDE
S1130540F51F805D80838FEF881A980AA80AB80A7D
S11305508C149D04AE04BF0488F2E1E0F0E0EC0FDB
S1130560FD1FEC0DFD1D1082CE0101960E94290293
S113057064960FB6F894DEBF0FBECDBFDF91CF9166
S11305801F91FF90EF90DF90CF90BF90AF909F901E
S11305908F900895CF93C5E006C06C2F70E080E380
S11305A00E944900CF5FC930C0F3CF9108950F93E3
S11305B01F93CF93DF93C5E016C00C2F10E0C80142
S11305C0815A9F4F0E945500D82FC8010E945500A0
S11305D0D81741F081E00E94FB0087B3806487BB99
S11305E083E004C0CF5FC93040F381E0DF91CF9155
S11305F01F910F9108958436910581F482B381602F
S113060082BB2FEF80E792E0215080409040E1F7D9
S113061000C0000082B38E7F82BB0895883B9B405C
S113062079F482B3816082BB8FEF9DE329E481502A
S113063090402040E1F700C0000082B38E7F82BB6F
S1130640089588B38E7F88BB1092B600089588B34E
S1130650816088BB81E08093B6000895CF9384E6DF
S113066090E09093720080937100C0E02BC084E608
S113067090E00E94FB028091B7000E94A201609169
S1130680710070917200CB01019690937200809377
S113069071008091B7000E94490004C00E9461006B
S11306A08093B7008091B7008F3FC1F704C00E94C8
S11306B061008093B7008091B7008F3F11F4C3307D
S11306C0B1F7CF5FC43098F2CF9108958091B7000D
S11306D08F3F21F184E690E00E94FB028AE20E94AF
S11306E0A2016091700081E0860F8093700070E039
S11306F08091B7000E94490004C00E946100809369
S1130700B7008091B7008F3FC1F702C00E94660313
S11307100E9461008093B7008F32C1F708950E9450
S11307206B010E945C0081B3816081BB87B38160EF
S113073087BBC0E00E9461008093B7008F3FD1F374
S11307408F3221F084E690E00E94FB028091B70092
S1130750883711F40E9421038091B7008F3241F54C
S11307608091B600813021F504C00E94610080931D
S1130770B7008091B7008F3FC1F781E00E94FB0072
S113078083E790E00E94290288EB9BE00E94FB0231
S113079060E081E00E9412020E9461008093B70031
S11307A08F3FD1F30E94660388EB9BE00E94FB021B
S11307B081E00E94FB0016C00E9461008093B70094
S11307C08091B7008F3FC1F7CF5F8C2F0E94450205
S11307D0CA3041F40E94CA0286E890E00E942902CD
S11307E0C0E00AC08091B600813031F48091B70036
S11307F0803311F4CA3020F38091B700883731F088
S11308008F3221F08091B600882321F08091B800C6
S11308108330D9F481E00E94FB000E942E030E94E1
S1130820D7028093B800813039F48EE990E00E94B9
S113083029020E94270309C086EA90E00E94290247
S113084004C00E9461008093B7008091B7008F3F7D
S1130850C1F770CFA1E21A2EAA1BBB1BFD010DC06C
S1130860AA1FBB1FEE1FFF1FA217B307E407F5075C
S113087020F0A21BB30BE40BF50B661F771F881F38
S1130880991F1A9469F760957095809590959B01CE
S10F0890AC01BD01CF010895F894FFCF26
S113089C37343163383532303936333D2F782D2B9C
S11308AC056400456E746572206E65772050617323
S11308BC73776F72640050617373776F726420681E
S11308CC6173206265656E20526573657400436FB5
S11308DC72726563740057726F6E6720547279205C
S10908EC416761696E0022
S9030000FC
